{
  "_format": "hh-sol-artifact-1",
  "contractName": "Library",
  "sourceName": "contracts/Library.sol",
  "abi": [
    {
      "anonymous": false,
      "inputs": [
        {
          "indexed": false,
          "internalType": "address",
          "name": "recipient",
          "type": "address"
        },
        {
          "indexed": false,
          "internalType": "uint256",
          "name": "bookId",
          "type": "uint256"
        }
      ],
      "name": "AddBook",
      "type": "event"
    },
    {
      "anonymous": false,
      "inputs": [
        {
          "indexed": false,
          "internalType": "uint256",
          "name": "bookId",
          "type": "uint256"
        },
        {
          "indexed": false,
          "internalType": "string",
          "name": "name",
          "type": "string"
        },
        {
          "indexed": false,
          "internalType": "uint16",
          "name": "year",
          "type": "uint16"
        },
        {
          "indexed": false,
          "internalType": "string",
          "name": "author",
          "type": "string"
        }
      ],
      "name": "EditBook",
      "type": "event"
    },
    {
      "anonymous": false,
      "inputs": [
        {
          "indexed": false,
          "internalType": "uint256",
          "name": "bookId",
          "type": "uint256"
        },
        {
          "indexed": false,
          "internalType": "bool",
          "name": "finished",
          "type": "bool"
        }
      ],
      "name": "SetFinished",
      "type": "event"
    },
    {
      "inputs": [
        {
          "internalType": "string",
          "name": "name",
          "type": "string"
        },
        {
          "internalType": "uint16",
          "name": "year",
          "type": "uint16"
        },
        {
          "internalType": "string",
          "name": "author",
          "type": "string"
        },
        {
          "internalType": "bool",
          "name": "finished",
          "type": "bool"
        }
      ],
      "name": "addBook",
      "outputs": [],
      "stateMutability": "nonpayable",
      "type": "function"
    },
    {
      "inputs": [
        {
          "internalType": "uint256",
          "name": "bookId",
          "type": "uint256"
        },
        {
          "internalType": "string",
          "name": "name",
          "type": "string"
        },
        {
          "internalType": "uint16",
          "name": "year",
          "type": "uint16"
        },
        {
          "internalType": "string",
          "name": "author",
          "type": "string"
        }
      ],
      "name": "editBook",
      "outputs": [],
      "stateMutability": "nonpayable",
      "type": "function"
    },
    {
      "inputs": [],
      "name": "getFinishedBooks",
      "outputs": [
        {
          "components": [
            {
              "internalType": "uint256",
              "name": "id",
              "type": "uint256"
            },
            {
              "internalType": "string",
              "name": "title",
              "type": "string"
            },
            {
              "internalType": "string",
              "name": "author",
              "type": "string"
            },
            {
              "internalType": "uint256",
              "name": "year",
              "type": "uint256"
            },
            {
              "internalType": "bool",
              "name": "finished",
              "type": "bool"
            }
          ],
          "internalType": "struct Library.Book[]",
          "name": "",
          "type": "tuple[]"
        }
      ],
      "stateMutability": "view",
      "type": "function"
    },
    {
      "inputs": [],
      "name": "getUnfinishedBooks",
      "outputs": [
        {
          "components": [
            {
              "internalType": "uint256",
              "name": "id",
              "type": "uint256"
            },
            {
              "internalType": "string",
              "name": "title",
              "type": "string"
            },
            {
              "internalType": "string",
              "name": "author",
              "type": "string"
            },
            {
              "internalType": "uint256",
              "name": "year",
              "type": "uint256"
            },
            {
              "internalType": "bool",
              "name": "finished",
              "type": "bool"
            }
          ],
          "internalType": "struct Library.Book[]",
          "name": "",
          "type": "tuple[]"
        }
      ],
      "stateMutability": "view",
      "type": "function"
    },
    {
      "inputs": [
        {
          "internalType": "uint256",
          "name": "bookId",
          "type": "uint256"
        },
        {
          "internalType": "bool",
          "name": "finished",
          "type": "bool"
        }
      ],
      "name": "setFinished",
      "outputs": [],
      "stateMutability": "nonpayable",
      "type": "function"
    }
  ],
  "bytecode": "0x6080604052348015600f57600080fd5b506113758061001f6000396000f3fe608060405234801561001057600080fd5b50600436106100575760003560e01c80636aa835a81461005c57806376d9e5a014610078578063c079766d14610096578063ef9fd446146100b2578063f2bc01ff146100ce575b600080fd5b610076600480360381019061007191906108f6565b6100ec565b005b6100806101cd565b60405161008d9190610b23565b60405180910390f35b6100b060048036038101906100ab9190610cb4565b6101de565b005b6100cc60048036038101906100c79190610d53565b610333565b005b6100d66104ab565b6040516100e39190610b23565b60405180910390f35b3373ffffffffffffffffffffffffffffffffffffffff166001600084815260200190815260200160002060009054906101000a900473ffffffffffffffffffffffffffffffffffffffff1673ffffffffffffffffffffffffffffffffffffffff16036101c957806000838154811061016757610166610df2565b5b906000526020600020906005020160040160006101000a81548160ff0219169083151502179055507fa4f349f92993cc89f62be8c4bead1bd7d76d2e9c4d05da59739c6e0dd75f042c82826040516101c0929190610e3f565b60405180910390a15b5050565b60606101d960016104bc565b905090565b60008080549050905060006040518060a001604052808381526020018781526020018581526020018661ffff168152602001841515815250908060018154018082558091505060019003906000526020600020906005020160009091909190915060008201518160000155602082015181600101908161025e9190611074565b5060408201518160020190816102749190611074565b506060820151816003015560808201518160040160006101000a81548160ff0219169083151502179055505050336001600083815260200190815260200160002060006101000a81548173ffffffffffffffffffffffffffffffffffffffff021916908373ffffffffffffffffffffffffffffffffffffffff1602179055507f10545577c692a22f651e69221c47ad4418e40434b36f4e2411bc54007aa8cbb93382604051610324929190611187565b60405180910390a15050505050565b3373ffffffffffffffffffffffffffffffffffffffff166001600086815260200190815260200160002060009054906101000a900473ffffffffffffffffffffffffffffffffffffffff1673ffffffffffffffffffffffffffffffffffffffff16146103d4576040517f08c379a00000000000000000000000000000000000000000000000000000000081526004016103cb9061120d565b60405180910390fd5b82600085815481106103e9576103e8610df2565b5b906000526020600020906005020160010190816104069190611074565b508161ffff16600085815481106104205761041f610df2565b5b906000526020600020906005020160030181905550806000858154811061044a57610449610df2565b5b906000526020600020906005020160020190816104679190611074565b507f3af50372332e0346212a86f45d2906c9c30a722ad3d0e99916458efd2fa58bcd8484848460405161049d9493929190611275565b60405180910390a150505050565b60606104b760006104bc565b905090565b60606000808054905067ffffffffffffffff8111156104de576104dd610b4f565b5b60405190808252806020026020018201604052801561051757816020015b610504610843565b8152602001906001900390816104fc5790505b5090506000805b60008054905081101561078d573373ffffffffffffffffffffffffffffffffffffffff166001600083815260200190815260200160002060009054906101000a900473ffffffffffffffffffffffffffffffffffffffff1673ffffffffffffffffffffffffffffffffffffffff161480156105ce5750841515600082815481106105ab576105aa610df2565b5b906000526020600020906005020160040160009054906101000a900460ff161515145b1561078057600081815481106105e7576105e6610df2565b5b90600052602060002090600502016040518060a00160405290816000820154815260200160018201805461061a90610e97565b80601f016020809104026020016040519081016040528092919081815260200182805461064690610e97565b80156106935780601f1061066857610100808354040283529160200191610693565b820191906000526020600020905b81548152906001019060200180831161067657829003601f168201915b505050505081526020016002820180546106ac90610e97565b80601f01602080910402602001604051908101604052809291908181526020018280546106d890610e97565b80156107255780601f106106fa57610100808354040283529160200191610725565b820191906000526020600020905b81548152906001019060200180831161070857829003601f168201915b50505050508152602001600382015481526020016004820160009054906101000a900460ff16151515158152505083838151811061076657610765610df2565b5b6020026020010181905250818061077c906112f7565b9250505b808060010191505061051e565b5060008167ffffffffffffffff8111156107aa576107a9610b4f565b5b6040519080825280602002602001820160405280156107e357816020015b6107d0610843565b8152602001906001900390816107c85790505b50905060005b828110156108375783818151811061080457610803610df2565b5b602002602001015182828151811061081f5761081e610df2565b5b602002602001018190525080806001019150506107e9565b50809350505050919050565b6040518060a00160405280600081526020016060815260200160608152602001600081526020016000151581525090565b6000604051905090565b600080fd5b600080fd5b6000819050919050565b61089b81610888565b81146108a657600080fd5b50565b6000813590506108b881610892565b92915050565b60008115159050919050565b6108d3816108be565b81146108de57600080fd5b50565b6000813590506108f0816108ca565b92915050565b6000806040838503121561090d5761090c61087e565b5b600061091b858286016108a9565b925050602061092c858286016108e1565b9150509250929050565b600081519050919050565b600082825260208201905092915050565b6000819050602082019050919050565b61096b81610888565b82525050565b600081519050919050565b600082825260208201905092915050565b60005b838110156109ab578082015181840152602081019050610990565b60008484015250505050565b6000601f19601f8301169050919050565b60006109d382610971565b6109dd818561097c565b93506109ed81856020860161098d565b6109f6816109b7565b840191505092915050565b610a0a816108be565b82525050565b600060a083016000830151610a286000860182610962565b5060208301518482036020860152610a4082826109c8565b91505060408301518482036040860152610a5a82826109c8565b9150506060830151610a6f6060860182610962565b506080830151610a826080860182610a01565b508091505092915050565b6000610a998383610a10565b905092915050565b6000602082019050919050565b6000610ab982610936565b610ac38185610941565b935083602082028501610ad585610952565b8060005b85811015610b115784840389528151610af28582610a8d565b9450610afd83610aa1565b925060208a01995050600181019050610ad9565b50829750879550505050505092915050565b60006020820190508181036000830152610b3d8184610aae565b905092915050565b600080fd5b600080fd5b7f4e487b7100000000000000000000000000000000000000000000000000000000600052604160045260246000fd5b610b87826109b7565b810181811067ffffffffffffffff82111715610ba657610ba5610b4f565b5b80604052505050565b6000610bb9610874565b9050610bc58282610b7e565b919050565b600067ffffffffffffffff821115610be557610be4610b4f565b5b610bee826109b7565b9050602081019050919050565b82818337600083830152505050565b6000610c1d610c1884610bca565b610baf565b905082815260208101848484011115610c3957610c38610b4a565b5b610c44848285610bfb565b509392505050565b600082601f830112610c6157610c60610b45565b5b8135610c71848260208601610c0a565b91505092915050565b600061ffff82169050919050565b610c9181610c7a565b8114610c9c57600080fd5b50565b600081359050610cae81610c88565b92915050565b60008060008060808587031215610cce57610ccd61087e565b5b600085013567ffffffffffffffff811115610cec57610ceb610883565b5b610cf887828801610c4c565b9450506020610d0987828801610c9f565b935050604085013567ffffffffffffffff811115610d2a57610d29610883565b5b610d3687828801610c4c565b9250506060610d47878288016108e1565b91505092959194509250565b60008060008060808587031215610d6d57610d6c61087e565b5b6000610d7b878288016108a9565b945050602085013567ffffffffffffffff811115610d9c57610d9b610883565b5b610da887828801610c4c565b9350506040610db987828801610c9f565b925050606085013567ffffffffffffffff811115610dda57610dd9610883565b5b610de687828801610c4c565b91505092959194509250565b7f4e487b7100000000000000000000000000000000000000000000000000000000600052603260045260246000fd5b610e2a81610888565b82525050565b610e39816108be565b82525050565b6000604082019050610e546000830185610e21565b610e616020830184610e30565b9392505050565b7f4e487b7100000000000000000000000000000000000000000000000000000000600052602260045260246000fd5b60006002820490506001821680610eaf57607f821691505b602082108103610ec257610ec1610e68565b5b50919050565b60008190508160005260206000209050919050565b60006020601f8301049050919050565b600082821b905092915050565b600060088302610f2a7fffffffffffffffffffffffffffffffffffffffffffffffffffffffffffffffff82610eed565b610f348683610eed565b95508019841693508086168417925050509392505050565b6000819050919050565b6000610f71610f6c610f6784610888565b610f4c565b610888565b9050919050565b6000819050919050565b610f8b83610f56565b610f9f610f9782610f78565b848454610efa565b825550505050565b600090565b610fb4610fa7565b610fbf818484610f82565b505050565b5b81811015610fe357610fd8600082610fac565b600181019050610fc5565b5050565b601f82111561102857610ff981610ec8565b61100284610edd565b81016020851015611011578190505b61102561101d85610edd565b830182610fc4565b50505b505050565b600082821c905092915050565b600061104b6000198460080261102d565b1980831691505092915050565b6000611064838361103a565b9150826002028217905092915050565b61107d82610971565b67ffffffffffffffff81111561109657611095610b4f565b5b6110a08254610e97565b6110ab828285610fe7565b600060209050601f8311600181146110de57600084156110cc578287015190505b6110d68582611058565b86555061113e565b601f1984166110ec86610ec8565b60005b82811015611114578489015182556001820191506020850194506020810190506110ef565b86831015611131578489015161112d601f89168261103a565b8355505b6001600288020188555050505b505050505050565b600073ffffffffffffffffffffffffffffffffffffffff82169050919050565b600061117182611146565b9050919050565b61118181611166565b82525050565b600060408201905061119c6000830185611178565b6111a96020830184610e21565b9392505050565b600082825260208201905092915050565b7f4e6f7420626f6f6b206f776e6572000000000000000000000000000000000000600082015250565b60006111f7600e836111b0565b9150611202826111c1565b602082019050919050565b60006020820190508181036000830152611226816111ea565b9050919050565b600061123882610971565b61124281856111b0565b935061125281856020860161098d565b61125b816109b7565b840191505092915050565b61126f81610c7a565b82525050565b600060808201905061128a6000830187610e21565b818103602083015261129c818661122d565b90506112ab6040830185611266565b81810360608301526112bd818461122d565b905095945050505050565b7f4e487b7100000000000000000000000000000000000000000000000000000000600052601160045260246000fd5b600061130282610888565b91507fffffffffffffffffffffffffffffffffffffffffffffffffffffffffffffffff8203611334576113336112c8565b5b60018201905091905056fea2646970667358221220c9240fbb486172b829f4a846db786fdf3de3eaef059a916a63d6c8f1fb40cd0064736f6c634300081b0033",
  "linkReferences": {},
  "deployedLinkReferences": {}
}